:100000000C9438000C9442000C9442000C94420072
:100010000C9442000C9442000C9442000C94420058
:100020000C9442000C9442000C9442000C94420048
:100030000C9442000C9442000C9442000C94420038
:100040000C9442000C9442000C9442000C94420028
:100050000C9442000C9442000C9442000C94420018
:100060000C9442000C9442000C9442000C94420008
:1000700011241FBECFEFD4E0DEBFCDBF0E944F00E2
:100080000C948D000C94000090BD89B988E18AB968
:100090008EE880BD08955D9BFECF8CB90895D19AFE
:1000A0008FE190E00E944400D99A2FE38DE093E025
:1000B000215080409040E1F700C00000D9982FE324
:1000C0008DE093E0215080409040E1F700C00000B7
:1000D00081E690E00E944B0082E690E00E944B0097
:1000E00080E790E00E944B0085E690E00E944B0084
:1000F0008EE690E00E944B0089E690E00E944B0063
:1001000083E790E00E944B0082E390E00E944B0066
:0E0110008AE090E00E944B00C7CFF894FFCF2A
:00000001FF
